:100000000C945C000C946E000C946E000C946E00CA
:100010000C946E000C946E000C946E000C946E00A8
:100020000C946E000C946E000C946E000C946E0098
:100030000C946E000C946E000C946E000C946E0088
:100040000C940F010C946E000C946E000C946E00D6
:100050000C946E000C946E000C946E000C946E0068
:100060000C946E000C946E00000000002400270029
:100070002A0000000000250028002B0004040404CE
:100080000404040402020202020203030303030342
:10009000010204081020408001020408102001021F
:1000A00004081020000000080002010000030407FB
:1000B000000000000000000011241FBECFEFD8E0B8
:1000C000DEBFCDBF21E0A0E0B1E001C01D92A930AC
:1000D000B207E1F70E945B010C9459010C940000F7
:1000E000EAEAF0E02491E6E9F0E09491E2E8F0E059
:1000F000E491EE23C9F0222339F0233001F1A8F472
:10010000213019F1223029F1F0E0EE0FFF1FEE58F7
:10011000FF4FA591B4912FB7F894EC91811126C0AF
:1001200090959E239C932FBF08952730A9F02830E7
:10013000C9F0243049F7209180002F7D03C0209121
:1001400080002F7720938000DFCF24B52F7724BD48
:10015000DBCF24B52F7DFBCF2091B0002F772093EC
:10016000B000D2CF2091B0002F7DF9CF9E2BDACFF7
:100170003FB7F8948091050190910601A091070185
:10018000B091080126B5A89B05C02F3F19F0019634
:10019000A11DB11D3FBFBA2FA92F982F8827BC01E1
:1001A000CD01620F711D811D911D42E0660F771F09
:1001B000881F991F4A95D1F708958F929F92AF9209
:1001C000BF92CF92DF92EF92FF924B015C010E94AF
:1001D000B8006B017C010E94B8006C197D098E0982
:1001E0009F09683E734081059105A8F321E0821ABA
:1001F0009108A108B10888EEC80E83E0D81EE11C62
:10020000F11C81149104A104B10429F7FF90EF902F
:10021000DF90CF90BF90AF909F908F9008951F92E6
:100220000F920FB60F9211242F933F938F939F93AA
:10023000AF93BF938091010190910201A0910301BE
:10024000B09104013091000123E0230F2D3758F5C0
:100250000196A11DB11D209300018093010190938F
:100260000201A0930301B0930401809105019091D4
:100270000601A0910701B09108010196A11DB11DD1
:100280008093050190930601A0930701B0930801A4
:10029000BF91AF919F918F913F912F910F900FBE82
:1002A0000F901F90189526E8230F0296A11DB11DEF
:1002B000D2CFF894FFCF789484B5826084BD84B5A2
:1002C000816084BD85B5826085BD85B5816085BD51
:1002D00080916E00816080936E0010928100809109
:1002E0008100826080938100809181008160809391
:1002F0008100809180008160809380008091B100B6
:1003000084608093B1008091B00081608093B000E0
:1003100080917A00846080937A0080917A00826074
:1003200080937A0080917A00816080937A00809136
:100330007A00806880937A001092C100E6E9F0E0CC
:100340002491E2E8F0E08491882399F090E0880F0E
:10035000991FFC01E859FF4FA591B491FC01EE589B
:10036000FF4F859194918FB7F894EC91E22BEC9329
:100370008FBFC0E0D0E081E00E94700068EB7BE0BE
:1003800080E090E00E94DD0080E00E94700068EE56
:1003900073E080E090E00E94DD00209761F30E940E
:0403A0000000E9CFA1
:00000001FF
